{
  "_format": "hh-sol-artifact-1",
  "contractName": "ConsentProof",
  "sourceName": "contracts/ConsentProof.sol",
  "abi": [
    {
      "anonymous": false,
      "inputs": [
        {
          "indexed": false,
          "internalType": "uint256",
          "name": "datasetId",
          "type": "uint256"
        },
        {
          "indexed": false,
          "internalType": "address",
          "name": "user",
          "type": "address"
        },
        {
          "indexed": false,
          "internalType": "bool",
          "name": "consentGiven",
          "type": "bool"
        },
        {
          "indexed": false,
          "internalType": "uint256",
          "name": "timestamp",
          "type": "uint256"
        }
      ],
      "name": "ConsentGiven",
      "type": "event"
    },
    {
      "inputs": [
        {
          "internalType": "uint256",
          "name": "_datasetId",
          "type": "uint256"
        },
        {
          "internalType": "address",
          "name": "_user",
          "type": "address"
        }
      ],
      "name": "checkConsent",
      "outputs": [
        {
          "internalType": "bool",
          "name": "",
          "type": "bool"
        }
      ],
      "stateMutability": "view",
      "type": "function"
    },
    {
      "inputs": [
        {
          "internalType": "uint256",
          "name": "",
          "type": "uint256"
        },
        {
          "internalType": "address",
          "name": "",
          "type": "address"
        }
      ],
      "name": "consents",
      "outputs": [
        {
          "internalType": "uint256",
          "name": "datasetId",
          "type": "uint256"
        },
        {
          "internalType": "address",
          "name": "user",
          "type": "address"
        },
        {
          "internalType": "bool",
          "name": "consentGiven",
          "type": "bool"
        },
        {
          "internalType": "uint256",
          "name": "timestamp",
          "type": "uint256"
        }
      ],
      "stateMutability": "view",
      "type": "function"
    },
    {
      "inputs": [
        {
          "internalType": "uint256",
          "name": "_datasetId",
          "type": "uint256"
        },
        {
          "internalType": "bool",
          "name": "_consent",
          "type": "bool"
        }
      ],
      "name": "giveConsent",
      "outputs": [],
      "stateMutability": "nonpayable",
      "type": "function"
    }
  ],
  "bytecode": "0x608060405234801561001057600080fd5b50610290806100206000396000f3fe608060405234801561001057600080fd5b50600436106100415760003560e01c806321874b5c146100465780632d04ab94146100c657806333f43aa9146100db575b600080fd5b6100936100543660046101f4565b600060208181529281526040808220909352908152208054600182015460029092015490916001600160a01b03811691600160a01b90910460ff169084565b604080519485526001600160a01b0390931660208501529015159183019190915260608201526080015b60405180910390f35b6100d96100d4366004610230565b61012c565b005b61011c6100e93660046101f4565b6000918252602082815260408084206001600160a01b03939093168452919052902060010154600160a01b900460ff1690565b60405190151581526020016100bd565b604080516080808201835284825233602080840182815286151585870181815242606080890182815260008d81528088528b812089825288528b902099518a55945160018a01805494511515600160a01b026001600160a81b03199095166001600160a01b039092169190911793909317909255925160029097019690965586518981529283019390935294810191909152918201929092527f6b4f8f48b1abc304e3e1e249f8604f906815693f1a7cbf62cfd0a5681867b11a910160405180910390a15050565b6000806040838503121561020757600080fd5b8235915060208301356001600160a01b038116811461022557600080fd5b809150509250929050565b6000806040838503121561024357600080fd5b823591506020830135801515811461022557600080fdfea2646970667358221220cc366f48014855550a2a6026720aa5dda93e6f8e95ca4cb75ff0fc49b0cbb0e264736f6c63430008140033",
  "linkReferences": {},
  "deployedLinkReferences": {}
}