{
  "_format": "hh-sol-artifact-1",
  "contractName": "SimpleDAO",
  "sourceName": "contracts/SimpleDAO.sol",
  "abi": [
    {
      "anonymous": false,
      "inputs": [
        {
          "indexed": false,
          "internalType": "uint256",
          "name": "id",
          "type": "uint256"
        },
        {
          "indexed": false,
          "internalType": "string",
          "name": "description",
          "type": "string"
        }
      ],
      "name": "ProposalCreated",
      "type": "event"
    },
    {
      "anonymous": false,
      "inputs": [
        {
          "indexed": false,
          "internalType": "uint256",
          "name": "proposalId",
          "type": "uint256"
        },
        {
          "indexed": false,
          "internalType": "address",
          "name": "voter",
          "type": "address"
        }
      ],
      "name": "Voted",
      "type": "event"
    },
    {
      "inputs": [
        {
          "internalType": "uint256",
          "name": "_proposalId",
          "type": "uint256"
        }
      ],
      "name": "completeProposal",
      "outputs": [],
      "stateMutability": "nonpayable",
      "type": "function"
    },
    {
      "inputs": [
        {
          "internalType": "string",
          "name": "_description",
          "type": "string"
        }
      ],
      "name": "createProposal",
      "outputs": [],
      "stateMutability": "nonpayable",
      "type": "function"
    },
    {
      "inputs": [
        {
          "internalType": "address",
          "name": "",
          "type": "address"
        }
      ],
      "name": "hasVoted",
      "outputs": [
        {
          "internalType": "bool",
          "name": "",
          "type": "bool"
        }
      ],
      "stateMutability": "view",
      "type": "function"
    },
    {
      "inputs": [],
      "name": "proposalCount",
      "outputs": [
        {
          "internalType": "uint256",
          "name": "",
          "type": "uint256"
        }
      ],
      "stateMutability": "view",
      "type": "function"
    },
    {
      "inputs": [
        {
          "internalType": "uint256",
          "name": "",
          "type": "uint256"
        }
      ],
      "name": "proposals",
      "outputs": [
        {
          "internalType": "uint256",
          "name": "id",
          "type": "uint256"
        },
        {
          "internalType": "string",
          "name": "description",
          "type": "string"
        },
        {
          "internalType": "uint256",
          "name": "voteCount",
          "type": "uint256"
        },
        {
          "internalType": "bool",
          "name": "isCompleted",
          "type": "bool"
        }
      ],
      "stateMutability": "view",
      "type": "function"
    },
    {
      "inputs": [
        {
          "internalType": "uint256",
          "name": "_proposalId",
          "type": "uint256"
        }
      ],
      "name": "vote",
      "outputs": [],
      "stateMutability": "nonpayable",
      "type": "function"
    }
  ],
  "bytecode": "0x608060405234801561001057600080fd5b5061073b806100206000396000f3fe608060405234801561001057600080fd5b50600436106100625760003560e01c80630121b93f14610067578063013cf08b1461007c57806309eef43e146100a857806349c2a1a6146100db578063da35c664146100ee578063f4cd78b014610105575b600080fd5b61007a6100753660046103ed565b610131565b005b61008f61008a3660046103ed565b610282565b60405161009f949392919061044c565b60405180910390f35b6100cb6100b636600461047d565b60026020526000908152604090205460ff1681565b604051901515815260200161009f565b61007a6100e93660046104c3565b610337565b6100f760015481565b60405190815260200161009f565b61007a6101133660046103ed565b6000908152602081905260409020600301805460ff19166001179055565b3360009081526002602052604090205460ff16156101965760405162461bcd60e51b815260206004820152601760248201527f596f75206861766520616c726561647920766f7465642e00000000000000000060448201526064015b60405180910390fd5b60008181526020819052604090206003015460ff16156101f85760405162461bcd60e51b815260206004820152601b60248201527f50726f706f73616c20616c726561647920636f6d706c657465642e0000000000604482015260640161018d565b600081815260208190526040812060020180549161021583610574565b90915550503360008181526002602052604090819020805460ff19166001179055517f030b0f8dcd86a031eddb071f91882edeac8173663ba775713b677b42b51be44b91610277918491909182526001600160a01b0316602082015260400190565b60405180910390a150565b600060208190529081526040902080546001820180549192916102a49061059b565b80601f01602080910402602001604051908101604052809291908181526020018280546102d09061059b565b801561031d5780601f106102f25761010080835404028352916020019161031d565b820191906000526020600020905b81548152906001019060200180831161030057829003601f168201915b50505050600283015460039093015491929160ff16905084565b6001805490600061034783610574565b90915550506040805160808101825260018054808352602080840186815260008587018190526060860181905292835290829052939020825181559251919291908201906103959082610624565b5060408281015160028301556060909201516003909101805460ff191691151591909117905560015490517f9c770c289ab5bf7e57cb1d23c8ceae993aea46eb64847072fd3d78ca60d3e432916102779184906106e4565b6000602082840312156103ff57600080fd5b5035919050565b6000815180845260005b8181101561042c57602081850181015186830182015201610410565b506000602082860101526020601f19601f83011685010191505092915050565b8481526080602082015260006104656080830186610406565b60408301949094525090151560609091015292915050565b60006020828403121561048f57600080fd5b81356001600160a01b03811681146104a657600080fd5b9392505050565b634e487b7160e01b600052604160045260246000fd5b6000602082840312156104d557600080fd5b813567ffffffffffffffff808211156104ed57600080fd5b818401915084601f83011261050157600080fd5b813581811115610513576105136104ad565b604051601f8201601f19908116603f0116810190838211818310171561053b5761053b6104ad565b8160405282815287602084870101111561055457600080fd5b826020860160208301376000928101602001929092525095945050505050565b60006001820161059457634e487b7160e01b600052601160045260246000fd5b5060010190565b600181811c908216806105af57607f821691505b6020821081036105cf57634e487b7160e01b600052602260045260246000fd5b50919050565b601f82111561061f57600081815260208120601f850160051c810160208610156105fc5750805b601f850160051c820191505b8181101561061b57828155600101610608565b5050505b505050565b815167ffffffffffffffff81111561063e5761063e6104ad565b6106528161064c845461059b565b846105d5565b602080601f831160018114610687576000841561066f5750858301515b600019600386901b1c1916600185901b17855561061b565b600085815260208120601f198616915b828110156106b657888601518255948401946001909101908401610697565b50858210156106d45787850151600019600388901b60f8161c191681555b5050505050600190811b01905550565b8281526040602082015260006106fd6040830184610406565b94935050505056fea26469706673582212206a7c3f5b24cf13a2bf9844f6060ebd22c187bbbfa0a705bc7b71e97778c80a3164736f6c63430008140033",
  "linkReferences": {},
  "deployedLinkReferences": {}
}