{
  "_format": "hh-sol-artifact-1",
  "contractName": "RoyaltyPayments",
  "sourceName": "contracts/Royalty Payments.sol",
  "abi": [
    {
      "anonymous": false,
      "inputs": [
        {
          "indexed": false,
          "internalType": "uint256",
          "name": "datasetId",
          "type": "uint256"
        },
        {
          "indexed": false,
          "internalType": "address",
          "name": "creator",
          "type": "address"
        },
        {
          "indexed": false,
          "internalType": "uint256",
          "name": "amount",
          "type": "uint256"
        }
      ],
      "name": "RoyaltyPaid",
      "type": "event"
    },
    {
      "inputs": [
        {
          "internalType": "uint256",
          "name": "",
          "type": "uint256"
        }
      ],
      "name": "datasetCreators",
      "outputs": [
        {
          "internalType": "address",
          "name": "",
          "type": "address"
        }
      ],
      "stateMutability": "view",
      "type": "function"
    },
    {
      "inputs": [
        {
          "internalType": "uint256",
          "name": "_datasetId",
          "type": "uint256"
        }
      ],
      "name": "payRoyalty",
      "outputs": [],
      "stateMutability": "payable",
      "type": "function"
    },
    {
      "inputs": [
        {
          "internalType": "uint256",
          "name": "_datasetId",
          "type": "uint256"
        },
        {
          "internalType": "address",
          "name": "_creator",
          "type": "address"
        }
      ],
      "name": "registerCreator",
      "outputs": [],
      "stateMutability": "nonpayable",
      "type": "function"
    },
    {
      "inputs": [
        {
          "internalType": "address",
          "name": "",
          "type": "address"
        }
      ],
      "name": "royalties",
      "outputs": [
        {
          "internalType": "uint256",
          "name": "",
          "type": "uint256"
        }
      ],
      "stateMutability": "view",
      "type": "function"
    },
    {
      "inputs": [],
      "name": "withdrawRoyalties",
      "outputs": [],
      "stateMutability": "nonpayable",
      "type": "function"
    }
  ],
  "bytecode": "0x608060405234801561001057600080fd5b506103a0806100206000396000f3fe60806040526004361061004a5760003560e01c806321c34fcb1461004f5780635d889796146100665780639fa6b4a0146100af578063b9583aa7146100ef578063c7cc9b111461013d575b600080fd5b34801561005b57600080fd5b50610064610150565b005b34801561007257600080fd5b506100646100813660046102dc565b60009182526020829052604090912080546001600160a01b0319166001600160a01b03909216919091179055565b3480156100bb57600080fd5b506100dc6100ca366004610308565b60016020526000908152604090205481565b6040519081526020015b60405180910390f35b3480156100fb57600080fd5b5061012561010a36600461032a565b6000602081905290815260409020546001600160a01b031681565b6040516001600160a01b0390911681526020016100e6565b61006461014b36600461032a565b6101ea565b33600090815260016020526040902054806101ab5760405162461bcd60e51b81526020600482015260166024820152754e6f20726f79616c7469657320617661696c61626c6560501b60448201526064015b60405180910390fd5b336000818152600160205260408082208290555183156108fc0291849190818181858888f193505050501580156101e6573d6000803e3d6000fd5b5050565b6000818152602081905260409020546001600160a01b0316806102485760405162461bcd60e51b815260206004820152601660248201527510dc99585d1bdc881b9bdd081c9959da5cdd195c995960521b60448201526064016101a2565b6001600160a01b03811660009081526001602052604081208054349290610270908490610343565b9091555050604080518381526001600160a01b0383166020820152348183015290517ff670029fc6f5302baba881b4ae845d1453acdf752b4c19ed81fe0fa6a686409b9181900360600190a15050565b80356001600160a01b03811681146102d757600080fd5b919050565b600080604083850312156102ef57600080fd5b823591506102ff602084016102c0565b90509250929050565b60006020828403121561031a57600080fd5b610323826102c0565b9392505050565b60006020828403121561033c57600080fd5b5035919050565b8082018082111561036457634e487b7160e01b600052601160045260246000fd5b9291505056fea2646970667358221220c2ce86fafb11a8df554c06f1edb63aa4ff35a9166e88769295755155bfde451864736f6c63430008140033",
  "linkReferences": {},
  "deployedLinkReferences": {}
}